{
  "_format": "hh-sol-artifact-1",
  "contractName": "Voting",
  "sourceName": "contracts/Voting.sol",
  "abi": [
    {
      "inputs": [],
      "stateMutability": "nonpayable",
      "type": "constructor"
    },
    {
      "anonymous": false,
      "inputs": [
        {
          "indexed": true,
          "internalType": "uint256",
          "name": "_candidateId",
          "type": "uint256"
        }
      ],
      "name": "VotedEvent",
      "type": "event"
    },
    {
      "inputs": [
        {
          "internalType": "string",
          "name": "_name",
          "type": "string"
        }
      ],
      "name": "addCandidate",
      "outputs": [],
      "stateMutability": "nonpayable",
      "type": "function"
    },
    {
      "inputs": [
        {
          "internalType": "uint256",
          "name": "",
          "type": "uint256"
        }
      ],
      "name": "candidates",
      "outputs": [
        {
          "internalType": "uint256",
          "name": "id",
          "type": "uint256"
        },
        {
          "internalType": "string",
          "name": "name",
          "type": "string"
        },
        {
          "internalType": "uint256",
          "name": "voteCount",
          "type": "uint256"
        }
      ],
      "stateMutability": "view",
      "type": "function"
    },
    {
      "inputs": [],
      "name": "candidatesCount",
      "outputs": [
        {
          "internalType": "uint256",
          "name": "",
          "type": "uint256"
        }
      ],
      "stateMutability": "view",
      "type": "function"
    },
    {
      "inputs": [],
      "name": "getAllCandidates",
      "outputs": [
        {
          "components": [
            {
              "internalType": "uint256",
              "name": "id",
              "type": "uint256"
            },
            {
              "internalType": "string",
              "name": "name",
              "type": "string"
            },
            {
              "internalType": "uint256",
              "name": "voteCount",
              "type": "uint256"
            }
          ],
          "internalType": "struct Voting.Candidate[]",
          "name": "",
          "type": "tuple[]"
        }
      ],
      "stateMutability": "view",
      "type": "function"
    },
    {
      "inputs": [
        {
          "internalType": "uint256",
          "name": "_candidateId",
          "type": "uint256"
        }
      ],
      "name": "getCandidate",
      "outputs": [
        {
          "internalType": "uint256",
          "name": "",
          "type": "uint256"
        },
        {
          "internalType": "string",
          "name": "",
          "type": "string"
        },
        {
          "internalType": "uint256",
          "name": "",
          "type": "uint256"
        }
      ],
      "stateMutability": "view",
      "type": "function"
    },
    {
      "inputs": [],
      "name": "owner",
      "outputs": [
        {
          "internalType": "address",
          "name": "",
          "type": "address"
        }
      ],
      "stateMutability": "view",
      "type": "function"
    },
    {
      "inputs": [
        {
          "internalType": "uint256",
          "name": "_candidateId",
          "type": "uint256"
        }
      ],
      "name": "vote",
      "outputs": [],
      "stateMutability": "nonpayable",
      "type": "function"
    },
    {
      "inputs": [
        {
          "internalType": "address",
          "name": "",
          "type": "address"
        }
      ],
      "name": "voters",
      "outputs": [
        {
          "internalType": "bool",
          "name": "",
          "type": "bool"
        }
      ],
      "stateMutability": "view",
      "type": "function"
    }
  ],
  "bytecode": "0x608060405234801561001057600080fd5b5033600360006101000a81548173ffffffffffffffffffffffffffffffffffffffff021916908373ffffffffffffffffffffffffffffffffffffffff1602179055506112d7806100616000396000f3fe608060405234801561001057600080fd5b50600436106100885760003560e01c806335b8e8201161005b57806335b8e82014610117578063462e91ec146101495780638da5cb5b14610165578063a3ec138d1461018357610088565b80630121b93f1461008d5780632d35a8a2146100a95780632e6997fe146100c75780633477ee2e146100e5575b600080fd5b6100a760048036038101906100a29190610864565b6101b3565b005b6100b1610343565b6040516100be91906108a0565b60405180910390f35b6100cf610349565b6040516100dc9190610a6c565b60405180910390f35b6100ff60048036038101906100fa9190610864565b6104bd565b60405161010e93929190610ad8565b60405180910390f35b610131600480360381019061012c9190610864565b61056f565b60405161014093929190610ad8565b60405180910390f35b610163600480360381019061015e9190610c4b565b6106a9565b005b61016d6107b3565b60405161017a9190610cd5565b60405180910390f35b61019d60048036038101906101989190610d1c565b6107d9565b6040516101aa9190610d64565b60405180910390f35b600160003373ffffffffffffffffffffffffffffffffffffffff1673ffffffffffffffffffffffffffffffffffffffff16815260200190815260200160002060009054906101000a900460ff1615610240576040517f08c379a000000000000000000000000000000000000000000000000000000000815260040161023790610dcb565b60405180910390fd5b60008111801561025257506002548111155b610291576040517f08c379a000000000000000000000000000000000000000000000000000000000815260040161028890610e37565b60405180910390fd5b60018060003373ffffffffffffffffffffffffffffffffffffffff1673ffffffffffffffffffffffffffffffffffffffff16815260200190815260200160002060006101000a81548160ff021916908315150217905550600080828152602001908152602001600020600201600081548092919061030e90610e86565b9190505550807fe447c5464cb203c1da94b4db8588d3cbf313ce4a489122f6b88e87f465b2810e60405160405180910390a250565b60025481565b6060600060025467ffffffffffffffff81111561036957610368610b20565b5b6040519080825280602002602001820160405280156103a257816020015b61038f6107f9565b8152602001906001900390816103875790505b5090506000600190505b60025481116104b557600080828152602001908152602001600020604051806060016040529081600082015481526020016001820180546103ec90610efd565b80601f016020809104026020016040519081016040528092919081815260200182805461041890610efd565b80156104655780601f1061043a57610100808354040283529160200191610465565b820191906000526020600020905b81548152906001019060200180831161044857829003601f168201915b50505050508152602001600282015481525050826001836104869190610f2e565b8151811061049757610496610f62565b5b602002602001018190525080806104ad90610e86565b9150506103ac565b508091505090565b60006020528060005260406000206000915090508060000154908060010180546104e690610efd565b80601f016020809104026020016040519081016040528092919081815260200182805461051290610efd565b801561055f5780601f106105345761010080835404028352916020019161055f565b820191906000526020600020905b81548152906001019060200180831161054257829003601f168201915b5050505050908060020154905083565b600060606000808411801561058657506002548411155b6105c5576040517f08c379a00000000000000000000000000000000000000000000000000000000081526004016105bc90610e37565b60405180910390fd5b6000806000868152602001908152602001600020604051806060016040529081600082015481526020016001820180546105fe90610efd565b80601f016020809104026020016040519081016040528092919081815260200182805461062a90610efd565b80156106775780601f1061064c57610100808354040283529160200191610677565b820191906000526020600020905b81548152906001019060200180831161065a57829003601f168201915b505050505081526020016002820154815250509050806000015181602001518260400151935093509350509193909250565b600360009054906101000a900473ffffffffffffffffffffffffffffffffffffffff1673ffffffffffffffffffffffffffffffffffffffff163373ffffffffffffffffffffffffffffffffffffffff1614610739576040517f08c379a000000000000000000000000000000000000000000000000000000000815260040161073090611003565b60405180910390fd5b6002600081548092919061074c90610e86565b919050555060405180606001604052806002548152602001828152602001600081525060008060025481526020019081526020016000206000820151816000015560208201518160010190816107a291906111cf565b506040820151816002015590505050565b600360009054906101000a900473ffffffffffffffffffffffffffffffffffffffff1681565b60016020528060005260406000206000915054906101000a900460ff1681565b60405180606001604052806000815260200160608152602001600081525090565b6000604051905090565b600080fd5b600080fd5b6000819050919050565b6108418161082e565b811461084c57600080fd5b50565b60008135905061085e81610838565b92915050565b60006020828403121561087a57610879610824565b5b60006108888482850161084f565b91505092915050565b61089a8161082e565b82525050565b60006020820190506108b56000830184610891565b92915050565b600081519050919050565b600082825260208201905092915050565b6000819050602082019050919050565b6108f08161082e565b82525050565b600081519050919050565b600082825260208201905092915050565b60005b83811015610930578082015181840152602081019050610915565b60008484015250505050565b6000601f19601f8301169050919050565b6000610958826108f6565b6109628185610901565b9350610972818560208601610912565b61097b8161093c565b840191505092915050565b600060608301600083015161099e60008601826108e7565b50602083015184820360208601526109b6828261094d565b91505060408301516109cb60408601826108e7565b508091505092915050565b60006109e28383610986565b905092915050565b6000602082019050919050565b6000610a02826108bb565b610a0c81856108c6565b935083602082028501610a1e856108d7565b8060005b85811015610a5a5784840389528151610a3b85826109d6565b9450610a46836109ea565b925060208a01995050600181019050610a22565b50829750879550505050505092915050565b60006020820190508181036000830152610a8681846109f7565b905092915050565b600082825260208201905092915050565b6000610aaa826108f6565b610ab48185610a8e565b9350610ac4818560208601610912565b610acd8161093c565b840191505092915050565b6000606082019050610aed6000830186610891565b8181036020830152610aff8185610a9f565b9050610b0e6040830184610891565b949350505050565b600080fd5b600080fd5b7f4e487b7100000000000000000000000000000000000000000000000000000000600052604160045260246000fd5b610b588261093c565b810181811067ffffffffffffffff82111715610b7757610b76610b20565b5b80604052505050565b6000610b8a61081a565b9050610b968282610b4f565b919050565b600067ffffffffffffffff821115610bb657610bb5610b20565b5b610bbf8261093c565b9050602081019050919050565b82818337600083830152505050565b6000610bee610be984610b9b565b610b80565b905082815260208101848484011115610c0a57610c09610b1b565b5b610c15848285610bcc565b509392505050565b600082601f830112610c3257610c31610b16565b5b8135610c42848260208601610bdb565b91505092915050565b600060208284031215610c6157610c60610824565b5b600082013567ffffffffffffffff811115610c7f57610c7e610829565b5b610c8b84828501610c1d565b91505092915050565b600073ffffffffffffffffffffffffffffffffffffffff82169050919050565b6000610cbf82610c94565b9050919050565b610ccf81610cb4565b82525050565b6000602082019050610cea6000830184610cc6565b92915050565b610cf981610cb4565b8114610d0457600080fd5b50565b600081359050610d1681610cf0565b92915050565b600060208284031215610d3257610d31610824565b5b6000610d4084828501610d07565b91505092915050565b60008115159050919050565b610d5e81610d49565b82525050565b6000602082019050610d796000830184610d55565b92915050565b7f596f75206861766520616c726561647920766f7465642e000000000000000000600082015250565b6000610db5601783610a8e565b9150610dc082610d7f565b602082019050919050565b60006020820190508181036000830152610de481610da8565b9050919050565b7f496e76616c69642063616e6469646174652049442e0000000000000000000000600082015250565b6000610e21601583610a8e565b9150610e2c82610deb565b602082019050919050565b60006020820190508181036000830152610e5081610e14565b9050919050565b7f4e487b7100000000000000000000000000000000000000000000000000000000600052601160045260246000fd5b6000610e918261082e565b91507fffffffffffffffffffffffffffffffffffffffffffffffffffffffffffffffff8203610ec357610ec2610e57565b5b600182019050919050565b7f4e487b7100000000000000000000000000000000000000000000000000000000600052602260045260246000fd5b60006002820490506001821680610f1557607f821691505b602082108103610f2857610f27610ece565b5b50919050565b6000610f398261082e565b9150610f448361082e565b9250828203905081811115610f5c57610f5b610e57565b5b92915050565b7f4e487b7100000000000000000000000000000000000000000000000000000000600052603260045260246000fd5b7f4f6e6c79206f776e65722063616e2063616c6c20746869732066756e6374696f60008201527f6e00000000000000000000000000000000000000000000000000000000000000602082015250565b6000610fed602183610a8e565b9150610ff882610f91565b604082019050919050565b6000602082019050818103600083015261101c81610fe0565b9050919050565b60008190508160005260206000209050919050565b60006020601f8301049050919050565b600082821b905092915050565b6000600883026110857fffffffffffffffffffffffffffffffffffffffffffffffffffffffffffffffff82611048565b61108f8683611048565b95508019841693508086168417925050509392505050565b6000819050919050565b60006110cc6110c76110c28461082e565b6110a7565b61082e565b9050919050565b6000819050919050565b6110e6836110b1565b6110fa6110f2826110d3565b848454611055565b825550505050565b600090565b61110f611102565b61111a8184846110dd565b505050565b5b8181101561113e57611133600082611107565b600181019050611120565b5050565b601f8211156111835761115481611023565b61115d84611038565b8101602085101561116c578190505b61118061117885611038565b83018261111f565b50505b505050565b600082821c905092915050565b60006111a660001984600802611188565b1980831691505092915050565b60006111bf8383611195565b9150826002028217905092915050565b6111d8826108f6565b67ffffffffffffffff8111156111f1576111f0610b20565b5b6111fb8254610efd565b611206828285611142565b600060209050601f8311600181146112395760008415611227578287015190505b61123185826111b3565b865550611299565b601f19841661124786611023565b60005b8281101561126f5784890151825560018201915060208501945060208101905061124a565b8683101561128c5784890151611288601f891682611195565b8355505b6001600288020188555050505b50505050505056fea264697066735822122066f8315192cf3d915f098681a7402e1864d9b0b35460f894b44adafeb635984064736f6c63430008180033",
  "linkReferences": {},
  "deployedLinkReferences": {}
}